:03000000020006F5
:03005F0002000399
:0300030002006296
:2000620075A0009007D012007675A0FF9007D012007680ECAE82AF83EE4F60167C737D008A
:13008200EC4D60071CBCFF011D80F51EBEFF011F80E622DE
:06003500E4787FF6D8FD1F
:200013007900E94400601B7A00900099780175A000E493F2A308B8000205A0D9F4DAF275FA
:02003300A0FF2C
:20003B007800E84400600A790175A000E4F309D8FC7800E84400600C7900900001E4F0A3C3
:04005B00D8FCD9FAFA
:0D000600758107120095E58260030200037A
:04009500758200224E
:00000001FF
